:100000000C940E020C9436020C9436020C943602B8
:100010000C9436020C9436020C9436020C94360280
:100020000C9436020C9436020C9436020C94D00ECA
:100030000C9436020C9436020C9436020C94360260
:100040000C94860E0C9436020C9436020C943602F4
:100050000C9436020C9436020C9436020C94360240
:100060000C9436020C9436020101FF030101F703E0
:100070006C00680000000000240027002A00000037
:100080000000250028002B000500893008023802F6
:10009000497868140000506F6E67002020444F5765
:1000A0004E202D2068617264002020524947485438
:1000B000202D206E6F726D616C0020205550202D18
:1000C00020656173790043686F6F7365206C657696
:1000D000656C3A00506F6E6700202042202D206E24
:1000E0006F00202041202D2079657300706C6179AC
:1000F00020616761696E3F00446F20796F752077DA
:10010000616E7420746F00506F6E670005003801D7
:1001100068010000175344001613780016131400EA
:100120001510200015201000540A03E181867F3E3F
:10013000186D830F0F0E0183866033186DC3198FFE
:100140001803C38E6033186DE330CF1803C39E606D
:100150003630CDE360CF3006C79E7E3E30CDB360F3
:10016000CF300CC6F6603330D9B660CF33CFCCF683
:100170006061B0DB1E60CF30D86CE6C061B0DB1EC2
:10018000618F19986CC6C063B19B0E330F0FB078A6
:10019000C6FF7E1F1B061E0F0A0A153A49676E6FBF
:1001A0007265006D560A0A504C454153452054551E
:1001B000524E204F464620004C4F57204241545447
:1001C00045525921200003053F213F1208120A1011
:1001D0000A0E1C0E0C1E0C141A14161F161E131ECB
:1001E0001E1B1E1E1F1E3F213F3A2F3A173D173F71
:1001F000213F181F02040A041F0E04040E1F0A1FC9
:100200000A0E0E1F04110E2E252E2F2A2E26292906
:10021000021F02081F08150E04040E150E15151BEB
:10022000151B040604040C04000000001700030062
:10023000031F0A1F16371A1904130A153A00030080
:10024000000E11110E000A040A040E04003000040E
:1002500004040010001804031F111F121F101D15A5
:100260001711151F07041F17151D1F151D01011F4D
:100270001F151F17151F000A00003200040A110A7B
:100280000A0A110A040115020E11171E051E1F1578
:100290000A0E110A1F110E1F15111F05010E111D47
:1002A0001F041F111F1108100F1F041B1F10101F08
:1002B000061F1E040F0E110E1F09060E112E1F051C
:1002C0001A121509011F011F101F0F180F1F0C1FF5
:1002D0001B041B031C03191513001F110304181121
:1002E0001F000201022020200001020C121E1F121A
:1002F0000C0C12120C121F0C1A14041E05242A1EB8
:100300001F021C141D1020201D1F0814111F101E79
:10031000041E1E021C0C120C3E0A040C123E1E048B
:100320000214160A020F120E101E0E100E1E081EC8
:10033000120C1226281E322A26041E21001F00211C
:100340001E040102013F213FF6E8DBCFC3B8AEA493
:100350009B928A827B746E68625C57524E4945411B
:100360003E3A3734312E2C292725232145006801B8
:100370000000172B152010204C4F41444552001708
:100380002B16201314000A4E6F2053442063617211
:1003900064206F720A6E6F204C4F414445522E48C4
:1003A00045580A0A153A45786974001D20466C6163
:1003B0007368696E670A20206C6F616465722E2E07
:1003C0002E0A0A444F4E2754205455524E204F4671
:1003D0004621000000000023002600290004040438
:1003E00004040404040202020202020303030303DE
:1003F00003010204081020408001020408102001BB
:10040000020408102000000008000201000003049C
:1004100007000000000000000000691511241FBE45
:10042000CFEFD8E0DEBFCDBF11E0A0E0B1E0E6E461
:10043000F0E302C005900D92A833B107D9F723E08D
:10044000A8E3B1E001C01D92A83EB207E1F712E0B7
:10045000CEE0D2E004C02197FE010E941B18CD30EF
:10046000D107C9F70E94110F0C9421180C940000B9
:10047000E1E6F3E014AE12AE1092AA031092A903C3
:1004800015AE1092600110925F0110925E01109201
:10049000B4000895CF93DF93E0918F038E2F90E007
:1004A000880F991FE0918D03F0918E03E80FF91FDB
:1004B000859194918F3F980729F410928603DF91DC
:1004C000CF910895909392039927880F991FE091F7
:1004D0009003F0919103E80FF91FC591D4910E9408
:1004E0003802D0939403C09393031092990310920F
:1004F000980381E08093870389E080939C031092A6
:100500009F031092A1031092A30380918F038F5F2A
:1005100080938F03D4CF90E0880F991FE0919503CB
:10052000F0919603E80FF91F259134913093A603BB
:100530002093A503F9018591949190918A03989F46
:10054000802D11248093A703F90165917491472FA1
:1005500050E08417150629F020F0F9012591349117
:10056000832F989F802D11248093A8030895DC0188
:10057000ED91FC910190F081E02D0994EF92FF92B2
:100580000F931F93CF93DF938C017B01D0E0C0E0EA
:10059000F701EC0FFD1F6491662361F0D801ED9126
:1005A000FC910190F081E02DC8010995892B11F093
:1005B0002196EECFCE01DF91CF911F910F91FF9049
:1005C000EF900895AF92BF92CF92DF92EF92FF9299
:1005D0000F931F93CF93DF936C017B018B01040F6B
:1005E000151FEB015E01AE18BF08C017D10759F007
:1005F0006991D601ED91FC910190F081E02DC60149
:100600000995892B79F7C501DF91CF911F910F9142
:10061000FF90EF90DF90CF90BF90AF900895833020
:1006200081F028F4813099F08230A9F00895873064
:10063000A9F08830C9F08430B1F4809180008F7DBA
:1006400003C0809180008F7780938000089584B5E7
:100650008F7784BD089584B58F7DFBCF8091B000E6
:100660008F778093B00008958091B0008F7DF9CF8F
:100670001F93CF93DF93282F30E0F901EB5FFB4FFF
:100680008491F901EF50FC4FD491F901E352FC4FF2
:10069000C491CC23A9F0162F81110E940F03EC2FD7
:1006A000F0E0EE0FFF1FE258FF4FA591B4918FB716
:1006B000F894EC91111108C0D095DE23DC938FBF24
:1006C000DF91CF911F910895DE2BF8CFCF93C82FE4
:1006D000F89460E08091BE030E9438038091BF03CC
:1006E00018161CF460E00E943803CEBD00000DB463
:1006F00007FEFDCF8EB58091BF0318161CF461E094
:100700000E9438037894CF9108950F931F93CF934D
:100710008091BB038F5F8093BB0301E611E0C0E0D3
:100720008C2F80640E94660380E80E94660361E06B
:100730008091BE030E9438038091BF0318161CF4F9
:1007400060E00E943803F80184E591919EBD0000AD
:100750000DB407FEFDCF9EB58150B9F78091BF0360
:1007600018161CF461E00E943803CF5F0C5A1F4F2B
:10077000C630B1F680E4CF911F910F910C946603BF
:10078000CF93DF9390E0FC01EF50FC4F2491835214
:100790009C4FFC0184918823C9F090E0880F991F39
:1007A000FC01EC58FF4FA591B491FC01E258FF4FBA
:1007B000C591D49161110DC09FB7F8948C9120958B
:1007C00082238C938881282328839FBFDF91CF9138
:1007D0000895623051F49FB7F8943C91822F809530
:1007E00083238C93E8812E2BEFCF8FB7F894EC9175
:1007F0002E2B2C938FBFEACFFF920F931F93CF9393
:10080000DF93C1E6D3E0FF24FA9462E08A850E9478
:10081000C0032A8530E0F901EB5FFB4F8491F901B9
:10082000EF50FC4F0491F901E352FC4F1491112356
:10083000E1F081110E940F03E12FF0E0EE0FFF1FA6
:10084000ED52FC4FA591B491EC9189890E2369F08A
:10085000811113C0219683E0C836D807B1F6DF9125
:10086000CF911F910F91FF90089589898F5F898B98
:1008700060E08A850E94C003EDCF8F3F11F4198A92
:10088000F7CFF98AF5CF1F93CF93DF93182FEB01A2
:1008900061E00E94C003209739F460E0812FDF916E
:1008A000CF911F910C943803CF3FD10511F461E033
:1008B000F5CFE12FF0E0EB5FFB4FE491E33031F156
:1008C00040F4E130B1F0E230E1F0C038D1057CF71E
:1008D000E4CFE73029F1E83059F1E430B1F7809105
:1008E0008000806280938000D0938B00C0938A0048
:1008F00004C084B5806884BDC7BDDF91CF911F91CE
:10090000089584B5806284BDC8BDF7CF8091800012
:10091000806880938000D0938900C0938800EDCFD9
:100920008091B00080688093B000C093B300E5CFA1
:100930008091B00080628093B000C093B400DDCF9E
:100940008E50806480937C0080917A0080648093D4
:100950007A0080917A0086FDFCCF8091780090919A
:1009600079000895809185038F7149F584E10E9493
:10097000A004BC01990F880B990B0E94DE1626EE8D
:100980003FE34EEC50E40E9442170E94AD169B01DB
:1009900070937C0360937B03672BB9F084E08093B2
:1009A0007A03EDE7F3E080E0419151912417350798
:1009B00018F480937A0308958F5F8430A9F78091AB
:1009C00085038F5F8093850308958FEF80937A036B
:1009D000F6CF3FB7F89480913A0190913B01A091F6
:1009E0003C01B0913D0126B5A89B05C02F3F19F0F1
:1009F0000196A11DB11D3FBFBA2FA92F982F88279F
:100A0000BC01CD01620F711D811D911D42E0660F79
:100A1000771F881F991F4A95D1F708958F929F924B
:100A2000AF92BF92CF92DF92EF92FF924B015C01A7
:100A30000E94E9046B017C010E94E9046C197D09A4
:100A40008E099F09683E734081059105A8F321E056
:100A5000821A9108A108B10888EEC80E83E0D81E5A
:100A6000E11CF11C81149104A104B10429F7FF9049
:100A7000EF90DF90CF90BF90AF909F908F900895B0
:100A8000FC01648B8481849F402D1124458B15A229
:100A900014A213A281E0878B80935E01108E0895CB
:100AA000DC01643570F5403360F590968C91909739
:100AB000E62F062E000CFF0B242F25952595259556
:100AC00094E52902E00DF11D1124EF59FE4F20811C
:100AD000342F37708230B1F4822F90E0032E02C0A1
:100AE000959587950A94E2F780958170811114C0DD
:100AF00081E090E001C0880F3A95EAF78095822363
:100B000080830895833091F71C968C9181706427BF
:100B1000609561708613ECCF81E090E001C0880F92
:100B20003A95EAF7822BECCFAF92BF92CF92DF9249
:100B3000EF92FF920F931F93CF93DF93182F062FFF
:100B4000C0E0D3E08AEFD82E9EEFE92E842F847088
:100B5000C82E842F8270B82E842F8870A82E4170E2
:100B6000F42ECF5F8C2F880F8F5FE80ECC2081F0A2
:100B7000402F4D0F612F6C0F8FEA93E00E945005BC
:100B8000402F4C0F6D2F610F8FEA93E00E945005AC
:100B9000BB2081F0402F4D1B612F6C0F8FEA93E03B
:100BA0000E945005402F4C1B6D2F610F8FEA93E080
:100BB0000E945005AA2081F0402F4C0F612F6D1B21
:100BC0008FEA93E00E945005402F4D0F612F6C1B60
:100BD0008FEA93E00E945005FF2081F0402F4C1BCC
:100BE000612F6D1B8FEA93E00E945005402F4D1B33
:100BF000612F6C1B8FEA93E00E945005CD173CF4E7
:100C0000E7FCAFCFD150D394D394ED0CAACFDF91B2
:100C1000CF911F910F91FF90EF90DF90CF90BF90F9
:100C2000AF900895CF92DF92EF92FF920F931F93B0
:100C3000CF93DF937C01D62EC22EC42F002E000C42
:100C4000110B040F111D47FD1A958C2F0C2E000C53
:100C5000990B801791076CF4D0E0DC1544F46D2DEE
:100C60006D0F4C2FC7010E945005DF5FF6CFCF5F9D
:100C7000ECCFDF91CF911F910F91FF90EF90DF901C
:100C8000CF9008954F925F926F927F928F929F9232
:100C9000AF92BF92CF92DF92EF92FF920F931F938A
:100CA000CF93DF93EC016A3049F428859D818A85D2
:100CB000299F800D11248A871986A6C06D3009F4FA
:100CC000A3C0898483E588150CF487C0DA848FE299
:100CD0008D150CF482C018852C812150330B129F86
:100CE000C001139F900D1124880D911D87FC9A95CA
:100CF000181619060CF071C02D818D2D0D2C000CCD
:100D0000990B129F800D911D1124181619060CF0D5
:100D100064C078A0C82C912CE62EF12C292D092C2A
:100D2000000C330B8C8190E0281739070CF054C06D
:100D30000197E0E02817390771F0E89EF001E99E7D
:100D4000F00DF89EF00D11242E0F3F1FEE8DFF8D3C
:100D5000E20FF31FE4915D2C612C492C480C2D818E
:100D6000862D062C000C990B2817190691F18CF191
:100D7000AE2EB12CE0FF16C0113061F4462D4D0DA2
:100D8000642DCE010E945005F501F595E795639419
:100D9000510EE5CF012F212F452D6C2DCE010E9444
:100DA0001206F2CF89A198A1891771F388A3113097
:100DB00041F4462D4D0D642DCE010E94500578A2C0
:100DC000E3CF012F212F452D6C2DCE010E9412065D
:100DD000F6CF9394C10EA2CF78A228853C81898555
:100DE000239F800D112489879F81992369F0082E04
:100DF000000C990B44E550E0239F40195109112440
:100E0000481759070CF452CF81E090E0DF91CF9161
:100E10001F910F91FF90EF90DF90CF90BF90AF9018
:100E20009F908F907F906F905F904F900895EF927A
:100E3000FF920F931F93CF93DF938C01D62FF42E45
:100E4000E22EC0E0CE1544F44F2D4C0F6D2FC8019B
:100E50000E945005CF5FF6CFDF91CF911F910F9188
:100E6000FF90EF9008958F929F92AF92BF92CF9292
:100E7000DF92EF92FF920F931F93CF93DF93082F90
:100E8000B62E942EA22E83E0F82ED0E0C3E09AEF87
:100E9000E92E1EEFCC24C394C20EDF5F1F0D2C2F52
:100EA000220F4B2D4C1B8A2C8F0CDB2CDD1A81E082
:100EB0002C0D602F981218C06D0F8FEA93E00E94DE
:100EC0001707282D4D2D6C2F600F8FEA93E00E949D
:100ED0001707DC179CF417FD04C0C150E394E3949A
:100EE0001E0DF394F394D9CF6D1B8FEA93E00E940B
:100EF0001707282D4D2D602F6C1BE7CFDF91CF9169
:100F00001F910F91FF90EF90DF90CF90BF90AF9027
:100F10009F908F900895089590E080E00895FB01E0
:100F200001900020E9F73197AF01461B570BDC0118
:100F3000ED91FC910280F381E02D09948F929F92B4
:100F4000AF92BF92EF92FF920F931F93CF93DF93D5
:100F5000CDB7DEB7A1970FB6F894DEBF0FBECDBFF9
:100F60007C01FA01CB0119A2223008F42AE08E019B
:100F70000F5D1F4F822E912CB12CA12CBF01A5011A
:100F800094010E947C16F901CA016A300CF5605D7B
:100F9000D8016E938D01232B242B252B79F790E01C
:100FA00080E0109721F0BD01C7010E948F07A19634
:100FB0000FB6F894DEBF0FBECDBFDF91CF911F916A
:100FC0000F91FF90EF90BF90AF909F908F900895FA
:100FD000695CDECFCF92DF92EF92FF920F931F9367
:100FE000CF93DF936B01770FEE08FF08F7FE1BC06E
:100FF000EC016DE20E94B7028C0144275527BA012B
:101000004C195D096E097F092AE0CE010E949E07F6
:10101000800F911FDF91CF911F910F91FF90EF9063
:10102000DF90CF9008952AE0B701A601DF91CF911C
:101030001F910F91FF90EF90DF90CF900C949E073F
:101040000F931F93CF93DF93EC010E94BE028C019C
:1010500068E271E0CE010E948F07800F911FDF913F
:10106000CF911F910F910895E1E6F1E088EF91E0B3
:10107000DF019C011D9221503040E1F71092B8032E
:101080001092B9036BEA73E08FEA93E00E94BE020C
:101090000E9485038CB583608CBD8DB58E7F8DBD20
:1010A0008BE291E0EEEFFFE309951092B50366E85D
:1010B00073E08FEA93E00E9420080E9485030E945B
:1010C000FC0380917603813039F062E370E080E0C8
:1010D00090E00E940E05F3CF08954F925F926F92B9
:1010E0007F928F929F92AF92BF92CF92DF92EF92B8
:1010F000FF920F931F93CF93DF9300D000D01F92E6
:10110000CDB7DEB74091E1035091E2036091E30374
:101110007091E4032FB7F89480915A0190915B018C
:10112000A0915C01B0915D012FBF481B590B6A0B68
:101130007B0B8091E00390E0B0E0A0E00091DC0345
:101140001091DD032091DE033091DF0384179507B2
:10115000A607B70708F0CEC0011511052105310516
:1011600009F4C8C02FB7F89480915A0190915B019F
:10117000A0915C01B0915D012FBF2091E003820F2F
:10118000911DA11DB11D8093E1039093E203A093F3
:10119000E303B093E4038091D2039091D303A09131
:1011A000D403B091D5030196A11DB11D8093D20344
:1011B0009093D303A093D403B093D5031092DC0390
:1011C0001092DD031092DE031092DF030E94E90407
:1011D0006093D8037093D9038093DA039093DB0371
:1011E00080916203909163032FE0289FA001299FC3
:1011F000500D11245A83498385E10E94A004A981DE
:10120000BA818A0F9B1FB4E096958795BA95E1F74E
:10121000909363038093620320916103222309F476
:1012200048C060916503262F30E050E040E02983FC
:101230003A834B835C83C0906603D12CF12CE12C64
:101240004091690350916A034A01B12CA12C20916D
:101250006703309168032901712C612C8217930771
:1012600028F09C014817590708F49A0150E040E023
:10127000241935094609570969817A818B819C8136
:101280006C197D098E099F090E94D717A501940149
:1012900024193509460957090E944A16C20ED31E61
:1012A000E41EF51EC09264036C2D70E085E00E9480
:1012B00043040E94FC0380917D0390917E03892B5F
:1012C00011F00E94B20481E00F900F900F900F90E8
:1012D0000F90DF91CF911F910F91FF90EF90DF90D2
:1012E000CF90BF90AF909F908F907F906F905F90C6
:1012F0004F900895012B022B032B09F079C18091A7
:10130000780381508E3FB8F580917703813099F54D
:1013100080918B038F5F60918C0387FD09C0082E3D
:10132000000C990B70E06F5F7F4F0E94F317682FDE
:1013300060938B038FE793E09093E6038093E5033C
:1013400088E48093E7030E9438028CE693E0909350
:10135000940380939303109299031092980381E071
:101360008093870389E080939C0310929F031092DF
:10137000A1031092A3038091780381508E3F70F4F3
:1013800080917603813009F014C382E793E0909353
:10139000E6038093E50388E48093E7038091860366
:1013A000882331F080918703811102C00E944A0294
:1013B00080918703882369F180919B03811129C063
:1013C0008091930390919403E0919803F091990395
:1013D000EE0FFF1FE80FF91F2591349121153105FC
:1013E00009F45DC1A9015695479556954795642F17
:1013F00020FD00C16F73432F86E893E00E944005F3
:10140000809198039091990301969093990380930A
:10141000980380919D03882331F080919B03811173
:1014200058C10E9438028091E703882309F496C0CE
:101430008C3008F035C23CE0381B3983FF24F3942C
:10144000F092B7031092CF031092D0034091B403EF
:101450004D831981141B042F0D5F4DE2410F2EE4C3
:1014600063E08FEA93E00E9412065D8154505D8331
:10147000105D252F41E0612F80E50E9433072D810B
:1014800042E0612F83E00E943307F092CF03F09295
:10149000D0030091B40383E0800F8D831981101B6A
:1014A0009DE2E92EE10E23E0F22E4E2D6F2D8FEA04
:1014B00093E00E945005F39491E5F912F6CFAD81C7
:1014C000AE0DAD83EA2EEA9483E0F82E4E2D6F2DFB
:1014D0008FEA93E00E945005F394B1E5FB12F6CF3A
:1014E0000350105D202F412F60E08FEA93E00E94AF
:1014F0001707202F412F63E58FEA93E00E9417071B
:1015000041E0612F83E00E94940542E0612F80E575
:101510000E9494052D8124502D8344E0622F80E5A4
:101520000E94940548E06D8183E00E94940584E068
:101530008093B8038091B4033981381B315D3093B7
:10154000B9036091E5037091E6038FEA93E00E948E
:10155000BE028091E70381508093E70380917D0371
:1015600090917E03892BE1F041E04093CF031092EC
:10157000D0039091B30385E5891B8093B803109243
:10158000B90360917A03613009F4F7C108F48AC1A4
:1015900080917903653008F007C26B5F8111FFC14C
:1015A0000E9485038091B50381110EC0E1E6F1E050
:1015B00088EF91E0DF019C011D9221503040E1F75E
:1015C0001092B8031092B9030E94E9046093DC03FF
:1015D0007093DD038093DE039093DF032091D803A3
:1015E0003091D903621B730B7093D7036093D603BA
:1015F00080E06ACEC901E6E096958795EA95E1F725
:101600008F71932F96959695969590514F70423085
:1016100099F1D0F4442309F43CC04130B9F1E09190
:101620009803F09199033196F0939903E09398030E
:10163000CF01880F991FE0919303F0919403E80F75
:10164000F91F25913491CECE433061F0443039F703
:1016500020918A03289F802D11248093A3039093C7
:10166000A403DDCF20918A03289F802D112480932D
:10167000A1039093A203D3CF20918A03289F802DAA
:10168000112480939F039093A003C9CF0E948B02E3
:10169000C6CF8B3008F08AE080939C03C0CF2091A6
:1016A0009703211110C01092870380918603811146
:1016B00003C00E943802ADCE0E944A028091980376
:1016C00090919903B6CF1092990310929803FC0160
:1016D000B8CF815080939B038091AB03811142C0AE
:1016E0002091A9033091AA032F5F3F4FC901880FB2
:1016F000991FE091A503F091A603E80FF91F8591CA
:101700009491482F47704093AC03492F46954695D6
:101710004093AD03AC0164E0569547956A95E1F7B7
:101720004F7390918A03499F402D11244093AB033E
:1017300083FB882780F9809359013093AA03209373
:10174000A9038091A70390E02817390758F020914A
:10175000A803222309F49EC0821B91099093AA0337
:101760008093A9038091AB0381508093AB03809158
:101770009E0331E0380F30939E0340919A032091ED
:10178000AD03240F80919203280F2093880360916A
:10179000A103662371F070E0832F032E000C990BD8
:1017A0000E94F3178091A203869F200D112420939D
:1017B00088038091880390E0849664E270E00E9440
:1017C000F3178093880320919C03209389036091F1
:1017D0009F03662381F0062E000C770B832F032EC8
:1017E000000C990B0E94F3178091A003869F200D97
:1017F0001124209389036091A3036623A1F0832F12
:10180000330F990B70E00E94F317CB0162E070E098
:101810000E94F3172091A40390918903289F900DB3
:101820001124909389034F33C1F1809189038A3049
:101830000CF089E087FD80E080938903F894E091C3
:101840008803F0E0E85BFC4FE491E09358012091BD
:10185000AE03309189033203900111244091AC030F
:101860004203C001439F900D112420918B0302C0BD
:10187000880F991F2A95E2F797FF02C081589F4F62
:10188000880F892F881F990B80935F0180936001D7
:101890007894C9CD0E94380265CF10928903CECFCB
:1018A0001982CCCD0E9438021092870351E05093E8
:1018B000B703E6ECF1E0E491EF5FE093B303E7EC0C
:1018C000F1E0E491EF5FE093B40388EC91E0909352
:1018D000CE038093CD0310927E0310927D0310926D
:1018E000B50388EA89830E946D088823E1F368EBD9
:1018F00071E08FEA93E00E94BE0240917B03509119
:101900007C0370E060E02AE08FEA93E00E949E078B
:1019100063EA71E08FEA93E00E94BE0269816295FA
:101920006F7070E08FEA93E00E94EA0768E971E067
:101930008FEA93E00E94BE0280917603813009F421
:101940002FCE9981915099839111CDCF70E060E0B5
:1019500085E00E94430483B7817F846083BF83B79F
:10196000816083BF83B7816083BF889583B78E7F93
:1019700083BF83B78E7F83BFB6CF8091D203909110
:10198000D303A091D403B091D5038F709927AA27D0
:10199000BB2767E00897A105B10508F068E78FEA63
:1019A00093E00E94B702FCCD882309F4F9CD6FE2E1
:1019B000F6CF893209F0F2CC0E943408EFCC2F9296
:1019C0003F924F925F926F927F928F929F92AF92CF
:1019D000BF92CF92DF92EF92FF920F931F93CF931C
:1019E000DF931F92CDB7DEB76C0181E08093B70320
:1019F0001092B6031092B503109279038093CF032F
:101A00008093D0039CE6292E93E0392E09E00E94B2
:101A10006D088823E1F3F6018491E8E2F1E0849017
:101A2000E9E2F1E0A490082C000C990818141904BC
:101A30000CF095C01A140CF092C07091CF03EA2DEF
:101A4000E1330CF0E0E3982DF5E58F1691040CF0EE
:101A500094E5F090BB0317E0810E911C83E0959410
:101A600087948A95E1F760E021E631E081E04AE27F
:101A700051E0AE2EEE0FBB086A151B040CF06FC0D0
:101A8000FA01E4907130E9F4D90110E8712E672C65
:101A90006E2019F06C90682A6C92769421F431963D
:101AA000E49010E8712E11966A2E621A691678F386
:101AB000880F19F42C5A3F4F81E06F5F480D591D74
:101AC000DBCF711117C0682E6094D90110E8712E18
:101AD0005E2C572019F05C9056205C92769421F48D
:101AE0003196E49010E8712E11965A2E521A59161A
:101AF00078F3DECFD90110E8712E7330F1F4482E5F
:101B0000409410E8612E512C762C7E2039F07C9088
:101B1000152D1F2510FF0FC0782A7C92669421F4A2
:101B20003196E49010E8612E53941196591660F3A3
:101B3000E1E0FE26BDCF7420F0CF672C6E2019F0B7
:101B40006C9068266C92769421F43196E49010E8BB
:101B5000712E11966A2E621A691678F3A9CF109227
:101B6000B803FCE0F093B903B6018FEA93E00E945A
:101B7000BE028091B303982F990F990F891B8D5A3C
:101B80008093B8038091B403982F990F990F891B04
:101B9000835D8093B9038091D20364E271E084FD98
:101BA00002C060E271E08FEA93E00E942008809119
:101BB000B303982F990F990F891B8D5A8093B803FF
:101BC0008091B9038F5F8093B90380918B036CE19F
:101BD00071E0811102C068E171E08FEA93E00E9438
:101BE00020088091B303982F990F990F891B8D5A64
:101BF0008093B8038091B9038F5F8093B90364E148
:101C000071E08FEA93E00E94200880917703813091
:101C100039F580918B038F5F60918C0387FD09C03C
:101C2000082E000C990B70E06F5F7F4F0E94F31736
:101C3000682F60938B030E943802309294032092A5
:101C40009303109299031092980311E01093870365
:101C500000939C0310929F031092A1031092A30380
:101C6000809176038130E9F08091D103482F50E0D4
:101C700070E060E08090D2039090D303A090D403F2
:101C8000B090D50384169506A606B70610F08F3FD0
:101C900041F480917803813009F0B9CE0E94340874
:101CA000B5CE8FEF8093D1030E9438021092870344
:101CB0000E9438028CE091E0909394038093930308
:101CC000109299031092980381E08093870399E022
:101CD00090939C0310929F031092A1031092A30370
:101CE000809379030F90DF91CF911F910F91FF9017
:101CF000EF90DF90CF90BF90AF909F908F907F90AC
:101D00006F905F904F903F902F9008951F920F9289
:101D10000FB60F9211242F933F938F939F93AF93FE
:101D2000BF9380915A0190915B01A0915C01B091A9
:101D30005D013091390123E0230F2D3758F50196CD
:101D4000A11DB11D2093390180935A0190935B012D
:101D5000A0935C01B0935D0180913A0190913B01A9
:101D6000A0913C01B0913D010196A11DB11D809350
:101D70003A0190933B01A0933C01B0933D01BF9188
:101D8000AF919F918F913F912F910F900FBE0F9028
:101D90001F90189526E8230F0296A11DB11DD2CFE2
:101DA0001F920F920FB60F9211242F936F937F9370
:101DB0008F939F9360915F01662349F18091380171
:101DC0008F5F8093380190915801891700F120911D
:101DD0005E0181E0282720935E01109238018091F6
:101DE0005901882369F08091000193E4899F802D37
:101DF0001124895B809300010E94E7179093600192
:101E000080916001211101C080E08093B4009F9116
:101E10008F917F916F912F910F900FBE0F901F9018
:101E20001895CF93DF93CDB7DEB728970FB6F89408
:101E3000DEBF0FBECDBF789484B5826084BD84B50B
:101E4000816084BD85B5826085BD85B5816085BDB5
:101E500080916E00816080936E001092810080916D
:101E600081008260809381008091810081608093F5
:101E70008100809180008160809380008091B1001A
:101E800084608093B1008091B00081608093B00045
:101E900080917A00846080937A0080917A008260D9
:101EA00080937A0080917A00816080937A0080919B
:101EB0007A00806880937A001092C10082E3809358
:101EC000E00381E090E0A0E0B0E08093DC03909339
:101ED000DD03A093DE03B093DF038FEF8093D10384
:101EE000E0E8F7E7259134912130304C09F06AC3DE
:101EF000E6E9F7E7E491E093BA03E7E9F7E7E4916D
:101F0000E0936503E8E9F7E7E491E0936603E9E924
:101F1000F7E7859194919093680380936703EBE9C9
:101F2000F7E78591949190936A038093690387E022
:101F300080938C03EEE9F7E7E491E0938B03EFE9FC
:101F4000F7E7E491E093D103E0EAF7E78591949114
:101F500090937E0380937D03E2EAF7E78591949165
:101F60009093800380937F03E4EAF7E7859194914F
:101F70009093820380938103E6EAF7E78591949139
:101F8000909384038093830371E0709361036FEFF8
:101F900070E085E00E94430488E080936B0389E051
:101FA00080936C0387E080936D0386E080936E03DB
:101FB00084E080936F0382E08093700381E18093DB
:101FC00071030E94FC038CE39FE090937C03809359
:101FD0007B0394E090937A03A1E0A09385038BE0C8
:101FE0008093BD038DE08093BC0380E18093BE03AA
:101FF0008EE08093C0038FE08093BF03A093B7036C
:10200000A093CF031092D003A093B603E6ECF1E0C7
:10201000E491EF5FE093B303E7ECF1E0E491EF5F6D
:10202000E093B40388EC91E09093CE038093CD03CA
:10203000CFB6C982F89480913E01811127C0E7EEA6
:10204000F3E08491EBEFF3E09491E82FF0E0EE0FF2
:10205000FF1FEC58FF4FA591B491EC91E92321F4B7
:1020600061E08AE00E94380361E08AE00E94C003D8
:102070008CB580618CBD8CB580648CBD61E08DE0D9
:102080000E94C00361E08BE00E94C00380913E018A
:102090008F5F80933E01D980DFBE8CB58F7D8CBD74
:1020A0008CB58C7F81608CBD8DB581608DBD8CB50C
:1020B0008C608CBD61E08091BD030E94C00361E033
:1020C0008091BC030E94C00361E08091BE030E9426
:1020D000C0038091C00318161CF461E00E94C00385
:1020E0008091BF0318161CF461E00E94C003809128
:1020F000C003181674F460E00E9438036AE070E0D0
:1021000080E090E00E940E0561E08091C0030E9493
:1021100038038091BC03082E000C990BFC01E3529C
:10212000FC4FE491F0E0EE0FFF1FE258FF4F2591C6
:1021300034913093C4032093C303FC01EF50FC4F50
:10214000E491E093CA038091BD03082E000C990B23
:10215000FC01E352FC4FE491F0E0EE0FFF1FE25868
:10216000FF4F259134913093C2032093C103FC01AA
:10217000EF50FC4FE491E093C9038091BF03082E18
:10218000000C990BFC01E352FC4FE491F0E0EE0FE0
:10219000FF1FE258FF4F259134913093C6032093DF
:1021A000C503FC01EF50FC4FE491E093CB03809119
:1021B000BE03082E000C990BFC01E352FC4FE49186
:1021C000F0E0EE0FFF1FE258FF4F2591349130935E
:1021D000C8032093C703FC01EF50FC4FE491E09348
:1021E000CC0381E20E94660384E10E946603809131
:1021F000BA0387FF03C08FE78093BA038091BA03C5
:1022000080680E94660380E20E9466038CE00E9460
:1022100066030E94850381E080938A0384E08093B3
:10222000AE0380E790E0909396038093950380E05F
:102230000E948B0261E070E083E00E944304809181
:10224000B100887F81608093B100F8941092800083
:1022500010928100109285001092840088E191E034
:10226000909389008093880080918100886080939A
:1022700081008091810081608093810080916F0056
:10228000826080936F00789480917D0390917E03AB
:10229000892B11F00E94B20480917703813009F4F8
:1022A000BEC180917A03882309F4B9C10E94380223
:1022B00088E890E09093940380939303109299039D
:1022C0001092980381E08093870389E080939C03B8
:1022D00010929F031092A1031092A3038091D10347
:1022E000882321F086E990E00E94DF0CC0907B03F8
:1022F000D0907C03C094D094F12CE12C0E94E9048E
:102300004B015C010E94E904A501940120953095E0
:102310004095509560957095809590950E94D7173F
:102320009B01AC01C701B6010E94D7174B015C01AC
:10233000C0906203D0906303F12CE12C0E94E90469
:102340006C0D7D1D8E1D9F1D680D791D8A1D9B1DA9
:10235000611571058105910511F00E94411681E01A
:10236000809379038093B70320E3622E712C6091F0
:102370001701709118018091190190911A016983D8
:102380007A838B839C838091120190911301A09199
:102390001401B09115018D839E83AF83B88705E149
:1023A000402E512C8EE0882E912C22242394312C07
:1023B0000E946D08882309F484C380910D0188234D
:1023C00009F49FC066EC70E08FEA93E00E94200859
:1023D0006AEB70E08FEA93E00E94200869EA70E0FF
:1023E0008FEA93E00E9420086BE970E08FEA93E0A7
:1023F0000E94BE028091730381508E3F50F510926F
:102400000D0180E190E090930C0180930B0183E03B
:1024100090E090930A018093090124E030E030932A
:102420005701209356019092080180920701309243
:102430000601209205019093550180935401A2E07A
:10244000B0E0B0930401A0930301B0930201A09304
:1024500001018091740381508E3F30F510920D017F
:1024600090920C0180920B01E2E0F0E0F0930A01FF
:10247000E093090183E090E0909357018093560127
:102480009092080180920701F0930601E093050104
:102490009093550180935401F0930401E09303015C
:1024A000F0930201E09301018091750381508E3F0A
:1024B00040F510920D0190920C0180920B01309228
:1024C0000A012092090183E090E0909357018093E4
:1024D000560120E130E030930801209307019093EA
:1024E00006018093050124E030E0309355012093EC
:1024F00054013093040120930301909302018093CF
:102500000101809153018111B5C180910D018111AB
:10251000D8C28BE18093B803609151017091520150
:102520008FEA93E00E94EA0784E38093B803609106
:102530004F01709150018FEA93E00E94EA07E0900A
:102540004D01F0904E0100910B0123E04E2D609162
:102550004B018FEA93E00E941206A0904901B090CF
:102560004A01409147015091480120910301309167
:1025700004018091010190910201F3E0AF16B104D2
:1025800009F003C2A0915601B09157018D010E0DC3
:102590001F1DFA013296BA016B5F7F4F6E157F05E2
:1025A0000CF4CDC10E171F070CF4C9C1319521954C
:1025B000310930930401209303011816190694F58C
:1025C000019631C09CE39093BA0310926503809307
:1025D000660380E293E0909368038093670384ED41
:1025E00093E090936A038093690387E080938C0360
:1025F00080938B038CEA9DE090937E0380937D0310
:102600008EED9DE09093800380937F0384E79EE0AE
:1026100090938203809381038CE39FE0B1CC10926E
:102620008B035CCE0197909302018093010141E0FE
:1026300064E686E893E00E94400580917303815030
:102640008E3F70F48091090190910A01E81AF90A0D
:10265000F7FE02C0F12CE12CF0924E01E0924D0108
:102660008091750381508E3FC8F480914D01909107
:102670004E014091090150910A0120910B013091C6
:102680000C01D301A21BB30B840F951FA817B90728
:102690000CF4CD0190934E0180934D0120914701A0
:1026A00030914801E0910701F091080180914501C6
:1026B000909146014091050150910601D901129770
:1026C000BF01F7FF02C06F5F7F4F75956795680F79
:1026D000791F6A177B070CF08AC1B3016E1B7F0B51
:1026E000840F951F681779070CF4CB01909346016E
:1026F000809345018091030190910401A80EB91EB9
:10270000B0924A01A0924901409101015091020109
:10271000240F351F30934801209347012B32310598
:102720000CF46CC1519541955109509302014093AD
:102730000101B3E5AB16B10454F120915101309180
:1027400052012F5F3F4F3093520120935101E5E03A
:10275000F0E0F0934A01E093490150924801409221
:10276000470142E0C42ED12CD0920201C092010157
:1027700097FF03C0919581959109909304018093EF
:10278000030168EE73E080E090E00E940E05809106
:10279000490190914A018C3F9F4F7CF580914F01F8
:1027A0009091500101969093500180934F016BE4FA
:1027B00070E070934A016093490150924801409241
:1027C000470182E090E090930201809301018091A3
:1027D00003019091040197FF03C0919581959109A0
:1027E000919581959109909304018093030168EE7E
:1027F00073E080E090E00E940E0505E025E0409146
:102800004701609149018FEA93E00E94120600910E
:10281000070123E040914501609143018FEA93E075
:102820000E94120620E340E06AE28FEA93E00E94F1
:1028300017078091510190915201079734F48091CC
:102840004F019091500107971CF081E08093530154
:102850008091780381508E3F40F48091D10388238A
:1028600021F087E091E00E94DF0C809153018823E2
:1028700009F427C180910D01811123C1809151017B
:1028800090915201079709F0C2C06D817E818F81BE
:10289000988560933F01709340018093410190932C
:1028A0004201A1E6B1E0E8EFF1E01D923197E9F7CE
:1028B0001092B8031092B9036FE371E08FEA93E0CE
:1028C0000E948F0762E371E08FEA93E00E948F0716
:1028D00068E271E08FEA93E00E948F0781E08093C5
:1028E000B60368EF70E08FEA93E00E9420086CEE78
:1028F00070E08FEA93E00E94200862EE70E08FEAB9
:1029000093E00E94200869ED70E08FEA93E00E9456
:10291000BE028091760381508E3F08F485C080917D
:10292000770381508E3F08F0CCC08091D10388237B
:1029300009F4C7C084ED90E00E94DF0CC2C0609132
:102940000B0170910C016E0D7F1D6B01CA1ADB0A21
:10295000D6010E171F070CF041C0EA17FB070CF059
:1029600041C0319521953109309304012093030131
:102970001816190614F4019701C0019690930201EC
:102980008093010141E061E054CE6FE4A616B104EA
:1029900009F053CEA0914501B0914601FA0132965B
:1029A000C0905401D09055018D010C0D1D1DBA0130
:1029B0006B5F7F4F6A177B0724F00E171F070CF021
:1029C000F5CD60910701709108016A0F7B1FDB0153
:1029D000AC19BD090E171F070CF4BFCFEA17FB0790
:1029E0000CF42BCE641775070CF427CEDFCD841BB7
:1029F000950B97FF7BCE90E080E078CE1216130601
:102A00000CF497CE10924801109247018BCE898129
:102A10009A81AB81BC8180933F0190934001A09348
:102A20004101B09342013DCF1092520110925101E9
:102A300010924C0110924B0180910B0190910C016E
:102A40006301C81AD90AC601D7FC019695958795E6
:102A500090934E0180934D011092500110924F01BE
:102A600021E530E030934401209343018091070138
:102A700090910801B301681B790BCB0177FD01969A
:102A80009595879590934601809345018EEF9FEF32
:102A90009093040180930301A2E0B0E0B09302019F
:102AA000A0930101EBE4F0E0F0934A01E0934901C7
:102AB00050924801409247011092530181E0809367
:102AC0000D0180E090E0892B09F472CC0E94000097
:102AD00066CC1092B2031092B10380E291E0909321
:102AE000B0038093AF0320910B0130910C0180E380
:102AF00090E0821B930B97FD019695958795909397
:102B00004E0180934D0181E590E0909344018093C4
:102B10004301209107013091080180E390E0821B7E
:102B2000930B97FD01969595879590934601809319
:102B300045018BE490E090934A018093490185E13F
:102B400090E0909348018093470108958F929F925F
:102B5000AF92BF92CF92DF92EF92FF92CF93DF932B
:102B6000EC01688179818A819B81611571058105FC
:102B7000910521F464E279ED8BE597E02DE133EFE7
:102B800041E050E00E944A1649015A019B01AC0104
:102B9000A7EAB1E40E9469166B017C01ACEEB4EFC8
:102BA000A50194010E947716C60ED71EE81EF91ED5
:102BB000F7FE06C081E0C81AD108E10880E8F80AEB
:102BC000C882D982EA82FB82C701B6019F77DF9172
:102BD000CF91FF90EF90DF90CF90BF90AF909F90FC
:102BE0008F9008958F929F92AF92BF92CF92DF9273
:102BF000EF92FF9260910E0170910F018091100190
:102C000090911101611571058105910521F464E22E
:102C100079ED8BE597E02DE133EF41E050E00E9444
:102C20004A1649015A019B01AC01A7EAB1E40E948E
:102C300069166B017C01ACEEB4EFA50194010E9412
:102C40007716C60ED71EE81EF91EF7FE06C081E0F5
:102C5000C81AD108E10880E8F80AC0920E01D092A3
:102C60000F01E0921001F0921101C701B6019F77A8
:102C7000FF90EF90DF90CF90BF90AF909F908F909C
:102C8000089560930E0170930F018093100190934B
:102C900011010895052E97FB1EF400940E94611601
:102CA00057FD07D00E947C1607FC03D04EF40C940D
:102CB000611650954095309521953F4F4F4F5F4F8E
:102CC000089590958095709561957F4F8F4F9F4F98
:102CD00008950E949E16A59F900DB49F900DA49FED
:102CE000800D911D11240895B7FF0C9469160E9460
:102CF0006916821B930B0895A1E21A2EAA1BBB1B17
:102D0000FD010DC0AA1FBB1FEE1FFF1FA217B307B7
:102D1000E407F50720F0A21BB30BE40BF50B661FCD
:102D2000771F881F991F1A9469F760957095809591
:102D300090959B01AC01BD01CF010895A29FB00108
:102D4000B39FC001A39F700D811D1124911DB29FDF
:102D5000700D811D1124911D08950E94211788F086
:102D60009F5798F0B92F9927B751B0F0E1F0660F4F
:102D7000771F881F991F1AF0BA95C9F714C0B13090
:102D800091F00E943B17B1E008950C943B17672F18
:102D9000782F8827B85F39F0B93FCCF386957795BF
:102DA0006795B395D9F73EF49095809570956195A8
:102DB0007F4F8F4F9F4F0895E89409C097FB3EF4D3
:102DC00090958095709561957F4F8F4F9F4F992378
:102DD000A9F0F92F96E9BB279395F69587957795F6
:102DE0006795B795F111F8CFFAF4BB0F11F460FFB6
:102DF0001BC06F5F7F4F8F4F9F4F16C0882311F00E
:102E000096E911C0772321F09EE8872F762F05C021
:102E1000662371F096E8862F70E060E02AF09A95BC
:102E2000660F771F881FDAF7880F9695879597F9B1
:102E3000089557FD9058440F551F59F05F3F71F0AA
:102E40004795880F97FB991F61F09F3F79F0879511
:102E50000895121613061406551FF2CF4695F1DF9A
:102E600008C0161617061806991FF1CF869571052A
:102E7000610508940895E894BB2766277727CB015E
:102E800097F908950E9455170C94C6170E94B81719
:102E900038F00E94BF1720F0952311F00C94AF1763
:102EA0000C94B51711240C943C170E94191770F359
:102EB000959FC1F3950F50E0551F629FF001729FDF
:102EC000BB27F00DB11D639FAA27F00DB11DAA1FEE
:102ED000649F6627B00DA11D661F829F2227B00D3B
:102EE000A11D621F739FB00DA11D621F839FA00DC6
:102EF000611D221F749F3327A00D611D231F849F16
:102F0000600D211D822F762F6A2F11249F5750406C
:102F10009AF0F1F088234AF0EE0FFF1FBB1F661FE7
:102F2000771F881F91505040A9F79E3F510580F0B0
:102F30000C94AF170C943C175F3FE4F3983ED4F326
:102F4000869577956795B795F795E7959F5FC1F754
:102F5000FE2B880F911D9695879597F9089597F9FF
:102F60009F6780E870E060E008959FEF80EC08952F
:102F700000240A9416161706180609060895002458
:102F80000A9412161306140605060895092E0394D2
:102F9000000C11F4882352F0BB0F40F4BF2B11F446
:102FA00060FF04C06F5F7F4F8F4F9F4F0895DB011D
:102FB0008F939F930E946916BF91AF91A29F800D3E
:102FC000911DA39F900DB29F900D11240895991B00
:102FD00079E004C0991F961708F0961B881F7A9510
:102FE000C9F78095089597FB072E16F4009407D033
:102FF00077FD09D00E94071807FC05D03EF4909594
:1030000081959F4F0895709561957F4F0895AA1BF4
:10301000BB1B51E107C0AA1FBB1FA617B70710F0C3
:10302000A61BB70B881F991F5A95A9F780959095F5
:10303000BC01CD010895EE0FFF1F0590F491E02D26
:063040000994F894FFCF93
:10304600010200020002000E0002000E0001010053
:103056000000596F75000043505500000000000045
:103066004206E2028C078B070D0A004C4F4144458D
:08307600520020776F6E00008C
:00000001FF
